{
  "contractName": "Child",
  "abi": [
    {
      "constant": false,
      "inputs": [
        {
          "name": "_number_1",
          "type": "uint256"
        },
        {
          "name": "_number_2",
          "type": "uint256"
        }
      ],
      "name": "dummy",
      "outputs": [
        {
          "name": "_sum",
          "type": "uint256"
        }
      ],
      "payable": false,
      "stateMutability": "nonpayable",
      "type": "function"
    },
    {
      "anonymous": false,
      "inputs": [
        {
          "indexed": false,
          "name": "_number",
          "type": "uint256"
        }
      ],
      "name": "TestEvent",
      "type": "event"
    },
    {
      "constant": false,
      "inputs": [
        {
          "name": "_number_1",
          "type": "uint256"
        },
        {
          "name": "_number_2",
          "type": "uint256"
        },
        {
          "name": "_number_3",
          "type": "uint256"
        },
        {
          "name": "_stranger",
          "type": "address"
        }
      ],
      "name": "childFunction",
      "outputs": [
        {
          "name": "_sum",
          "type": "uint256"
        }
      ],
      "payable": false,
      "stateMutability": "nonpayable",
      "type": "function"
    }
  ],
  "bytecode": "0x60606040526101e9806100136000396000f30060606040526004361061004c576000357c0100000000000000000000000000000000000000000000000000000000900463ffffffff168063335604e8146100515780635cd1238614610091575b600080fd5b341561005c57600080fd5b61007b60048080359060200190919080359060200190919050506100f9565b6040518082815260200191505060405180910390f35b341561009c57600080fd5b6100e3600480803590602001909190803590602001909190803590602001909190803573ffffffffffffffffffffffffffffffffffffffff16906020019091905050610106565b6040518082815260200191505060405180910390f35b6000818301905092915050565b60008173ffffffffffffffffffffffffffffffffffffffff1663d3076c4e86868660046000604051602001526040518563ffffffff167c010000000000000000000000000000000000000000000000000000000002815260040180858152602001848152602001838152602001828152602001945050505050602060405180830381600087803b151561019857600080fd5b6102c65a03f115156101a957600080fd5b5050506040518051905090509493505050505600a165627a7a72305820ad86c96dddc22a502eb556467139aabea5541805aa06bf02b0ddec2a066b53460029",
  "source": "pragma solidity ^0.4.16;\n\nimport \"./Stranger.sol\";\nimport \"./Parent.sol\";\n\ncontract Child is Parent {\n\n  function childFunction(uint256 _number_1, uint256 _number_2, uint256 _number_3, address _stranger)\n           public\n           returns (uint256 _sum)\n  {\n    _sum = Stranger(_stranger).strangerFunction(_number_1, _number_2, _number_3, 4);\n  }\n\n}\n",
  "sourcePath": "/home/vu/digix/solidity-demonstrations/contracts/inheritance/Child.sol",
  "compiler": {
    "name": "solc",
    "version": "0.4.19+commit.c4cbbb05.Emscripten.clang"
  },
  "schemaVersion": "2.0.0",
  "updatedAt": "2018-03-05T09:35:45.727Z"
}