{
  "contractName": "Parent",
  "abi": [
    {
      "inputs": [],
      "payable": false,
      "stateMutability": "nonpayable",
      "type": "constructor"
    },
    {
      "anonymous": false,
      "inputs": [
        {
          "indexed": false,
          "name": "_number",
          "type": "uint256"
        }
      ],
      "name": "TestEvent",
      "type": "event"
    },
    {
      "constant": false,
      "inputs": [
        {
          "name": "_number_1",
          "type": "uint256"
        },
        {
          "name": "_number_2",
          "type": "uint256"
        }
      ],
      "name": "dummy",
      "outputs": [
        {
          "name": "_sum",
          "type": "uint256"
        }
      ],
      "payable": false,
      "stateMutability": "nonpayable",
      "type": "function"
    }
  ],
  "bytecode": "0x6060604052341561000f57600080fd5b60ba8061001d6000396000f300606060405260043610603f576000357c0100000000000000000000000000000000000000000000000000000000900463ffffffff168063335604e8146044575b600080fd5b3415604e57600080fd5b606b60048080359060200190919080359060200190919050506081565b6040518082815260200191505060405180910390f35b60008183019050929150505600a165627a7a72305820adcc321bce005f5bd613fa8962cf98c6c548d2b0d910f824d29c527e4cbdc1d30029",
  "source": "pragma solidity ^0.4.16;\n\ncontract Parent {\n  uint256[] numbers;\n  event TestEvent(uint256 _number);\n\n  function Parent() {\n  }\n\n  function dummy(uint256 _number_1, uint256 _number_2)\n           public\n           returns (uint256 _sum)\n  {\n    _sum = _number_1 + _number_2;\n  }\n\n}\n",
  "sourcePath": "/home/vu/digix/solidity-demonstrations/contracts/inheritance/Parent.sol",
  "compiler": {
    "name": "solc",
    "version": "0.4.19+commit.c4cbbb05.Emscripten.clang"
  },
  "schemaVersion": "2.0.0",
  "updatedAt": "2018-03-05T09:35:45.709Z"
}