{
  "contractName": "Stranger",
  "abi": [
    {
      "constant": false,
      "inputs": [
        {
          "name": "_number_1",
          "type": "uint256"
        },
        {
          "name": "_number_2",
          "type": "uint256"
        },
        {
          "name": "_number_3",
          "type": "uint256"
        },
        {
          "name": "_number_4",
          "type": "uint256"
        }
      ],
      "name": "strangerFunction",
      "outputs": [
        {
          "name": "_sum",
          "type": "uint256"
        }
      ],
      "payable": false,
      "stateMutability": "nonpayable",
      "type": "function"
    }
  ],
  "bytecode": "0x6060604052341561000f57600080fd5b60d28061001d6000396000f300606060405260043610603f576000357c0100000000000000000000000000000000000000000000000000000000900463ffffffff168063d3076c4e146044575b600080fd5b3415604e57600080fd5b607d60048080359060200190919080359060200190919080359060200190919080359060200190919050506093565b6040518082815260200191505060405180910390f35b60008183858701010190509493505050505600a165627a7a72305820a9f835ddc6e2eb691e603aa03a79a4caa94f35b768d9de55ff10ca2fa42b3a7c0029",
  "source": "pragma solidity ^0.4.16;\n\ncontract Stranger {\n\n  function strangerFunction(uint256 _number_1, uint256 _number_2, uint256 _number_3, uint256 _number_4)\n           public\n           returns (uint256 _sum)\n  {\n    _sum = _number_1 + _number_2 + _number_3 + _number_4;\n  }\n\n}\n",
  "sourcePath": "/home/vu/digix/solidity-demonstrations/contracts/inheritance/Stranger.sol",
  "compiler": {
    "name": "solc",
    "version": "0.4.19+commit.c4cbbb05.Emscripten.clang"
  },
  "schemaVersion": "2.0.0",
  "updatedAt": "2018-03-05T09:35:45.729Z"
}