{
  "contractName": "TestStorage",
  "abi": [
    {
      "inputs": [],
      "payable": false,
      "stateMutability": "nonpayable",
      "type": "constructor"
    },
    {
      "anonymous": false,
      "inputs": [
        {
          "indexed": false,
          "name": "_number",
          "type": "uint256"
        }
      ],
      "name": "TestEvent",
      "type": "event"
    },
    {
      "constant": false,
      "inputs": [
        {
          "name": "_position",
          "type": "uint256"
        },
        {
          "name": "_number",
          "type": "uint256"
        },
        {
          "name": "_to_throw",
          "type": "bool"
        },
        {
          "name": "_to_return_false",
          "type": "bool"
        }
      ],
      "name": "change_number",
      "outputs": [
        {
          "name": "_success",
          "type": "bool"
        }
      ],
      "payable": false,
      "stateMutability": "nonpayable",
      "type": "function"
    },
    {
      "constant": false,
      "inputs": [
        {
          "name": "_no",
          "type": "uint256"
        }
      ],
      "name": "read_numbers",
      "outputs": [
        {
          "name": "_numbers",
          "type": "uint256[]"
        }
      ],
      "payable": false,
      "stateMutability": "nonpayable",
      "type": "function"
    },
    {
      "constant": false,
      "inputs": [],
      "name": "read_numbers",
      "outputs": [
        {
          "name": "_numbers",
          "type": "uint256[]"
        }
      ],
      "payable": false,
      "stateMutability": "nonpayable",
      "type": "function"
    }
  ],
  "bytecode": "0x6060604052341561000f57600080fd5b60008054806001018281610023919061008f565b9160005260206000209001600080909190915055506000805480600101828161004c919061008f565b91600052602060002090016000809091909150555060008054806001018281610075919061008f565b9160005260206000209001600080909190915055506100e0565b8154818355818115116100b6578183600052602060002091820191016100b591906100bb565b5b505050565b6100dd91905b808211156100d95760008160009055506001016100c1565b5090565b90565b6102f4806100ef6000396000f300606060405260043610610057576000357c0100000000000000000000000000000000000000000000000000000000900463ffffffff16806330e52f671461005c57806376dcc521146100d4578063c6542ac71461013e575b600080fd5b341561006757600080fd5b61007d6004808035906020019091905050610198565b6040518080602001828103825283818151815260200191508051906020019060200280838360005b838110156100c05780820151818401526020810190506100a5565b505050509050019250505060405180910390f35b34156100df57600080fd5b6100e76101e5565b6040518080602001828103825283818151815260200191508051906020019060200280838360005b8381101561012a57808201518184015260208101905061010f565b505050509050019250505060405180910390f35b341561014957600080fd5b61017e600480803590602001909190803590602001909190803515159060200190919080351515906020019091905050610243565b604051808215151515815260200191505060405180910390f35b6101a06102b4565b60016040518059106101af5750595b90808252806020026020018201604052509050818160008151811015156101d257fe5b9060200190602002018181525050919050565b6101ed6102b4565b600080548060200260200160405190810160405280929190818152602001828054801561023957602002820191906000526020600020905b815481526020019060010190808311610225575b5050505050905090565b60008360008681548110151561025557fe5b9060005260206000209001819055508215151561027157600080fd5b7f1440c4dd67b4344ea1905ec0318995133b550f168b4ee959a0da6b503d7d2414846040518082815260200191505060405180910390a181159050949350505050565b6020604051908101604052806000815250905600a165627a7a723058208d2e0d474c329459d459233790ee80296131f857042c2310fe8b52e8a78fe6840029",
  "source": "pragma solidity ^0.4.16;\n\ncontract TestStorage {\n  uint256[] numbers;\n  event TestEvent(uint256 _number);\n\n  function TestStorage() {\n    numbers.push(0);\n    numbers.push(0);\n    numbers.push(0);\n  }\n\n  function change_number(uint256 _position, uint256 _number, bool _to_throw, bool _to_return_false)\n           public\n           returns (bool _success)\n  {\n    numbers[_position] = _number;\n    require(!_to_throw);\n    TestEvent(_number);\n    _success = !_to_return_false;\n  }\n\n  function read_numbers()\n           returns (uint256[] _numbers)\n  {\n    _numbers = numbers;\n  }\n\n  function read_numbers(uint256 _no)\n           returns (uint256[] _numbers)\n  {\n    _numbers = new uint256[](1);\n    _numbers[0] = _no;\n  }\n}\n",
  "sourcePath": "/home/vu/digix/solidity-demonstrations/contracts/TestStorage.sol",
  "compiler": {
    "name": "solc",
    "version": "0.4.19+commit.c4cbbb05.Emscripten.clang"
  },
  "schemaVersion": "2.0.0",
  "updatedAt": "2018-03-05T09:35:45.723Z"
}