{
  "contractName": "TestInteractive",
  "abi": [
    {
      "inputs": [
        {
          "name": "_testController",
          "type": "address"
        }
      ],
      "payable": false,
      "stateMutability": "nonpayable",
      "type": "constructor"
    },
    {
      "constant": false,
      "inputs": [
        {
          "name": "_number",
          "type": "uint256"
        },
        {
          "name": "_to_throw",
          "type": "bool"
        },
        {
          "name": "_to_return_false",
          "type": "bool"
        }
      ],
      "name": "change_first_number",
      "outputs": [],
      "payable": false,
      "stateMutability": "nonpayable",
      "type": "function"
    },
    {
      "constant": false,
      "inputs": [
        {
          "name": "_number_1",
          "type": "uint256"
        },
        {
          "name": "_number_2",
          "type": "uint256"
        },
        {
          "name": "_number_3",
          "type": "uint256"
        },
        {
          "name": "_to_throw_1",
          "type": "bool"
        },
        {
          "name": "_to_throw_2",
          "type": "bool"
        },
        {
          "name": "_to_throw_3",
          "type": "bool"
        },
        {
          "name": "_to_return_false_1",
          "type": "bool"
        },
        {
          "name": "_to_return_false_2",
          "type": "bool"
        },
        {
          "name": "_to_return_false_3",
          "type": "bool"
        }
      ],
      "name": "change_three_numbers",
      "outputs": [],
      "payable": false,
      "stateMutability": "nonpayable",
      "type": "function"
    },
    {
      "constant": false,
      "inputs": [
        {
          "name": "_number_1_contract_1",
          "type": "uint256"
        },
        {
          "name": "_number_1_contract_2",
          "type": "uint256"
        },
        {
          "name": "_to_throw_1",
          "type": "bool"
        },
        {
          "name": "_to_throw_2",
          "type": "bool"
        },
        {
          "name": "_to_return_false_1",
          "type": "bool"
        },
        {
          "name": "_to_return_false_2",
          "type": "bool"
        }
      ],
      "name": "change_two_contracts",
      "outputs": [],
      "payable": false,
      "stateMutability": "nonpayable",
      "type": "function"
    },
    {
      "constant": false,
      "inputs": [
        {
          "name": "_numbers",
          "type": "uint256[]"
        }
      ],
      "name": "test_multiples",
      "outputs": [
        {
          "name": "_sum",
          "type": "uint256"
        }
      ],
      "payable": false,
      "stateMutability": "nonpayable",
      "type": "function"
    },
    {
      "constant": false,
      "inputs": [
        {
          "name": "_numbers",
          "type": "uint256[]"
        },
        {
          "name": "_strings",
          "type": "bytes32[]"
        }
      ],
      "name": "test_multiple_arrays",
      "outputs": [
        {
          "name": "_sum",
          "type": "uint256"
        },
        {
          "name": "_last_string",
          "type": "bytes32"
        }
      ],
      "payable": false,
      "stateMutability": "nonpayable",
      "type": "function"
    },
    {
      "constant": false,
      "inputs": [],
      "name": "return_numbers",
      "outputs": [
        {
          "name": "_array",
          "type": "uint256[]"
        }
      ],
      "payable": false,
      "stateMutability": "nonpayable",
      "type": "function"
    }
  ],
  "bytecode": "0x6060604052341561000f57600080fd5b6040516020806109bc83398101604052808051906020019091905050806000806101000a81548173ffffffffffffffffffffffffffffffffffffffff021916908373ffffffffffffffffffffffffffffffffffffffff160217905550506109418061007b6000396000f300606060405260043610610078576000357c0100000000000000000000000000000000000000000000000000000000900463ffffffff1680630244b54d1461007d578063a5077fae146100f4578063ac8092801461014c578063ba66623f146101b6578063c3390ee914610224578063dd9a716a146102e1575b600080fd5b341561008857600080fd5b6100f2600480803590602001909190803590602001909190803590602001909190803515159060200190919080351515906020019091908035151590602001909190803515159060200190919080351515906020019091908035151590602001909190505061031a565b005b34156100ff57600080fd5b61014a60048080359060200190919080359060200190919080351515906020019091908035151590602001909190803515159060200190919080351515906020019091905050610571565b005b341561015757600080fd5b61015f610701565b6040518080602001828103825283818151815260200191508051906020019060200280838360005b838110156101a2578082015181840152602081019050610187565b505050509050019250505060405180910390f35b34156101c157600080fd5b61020e600480803590602001908201803590602001908080602002602001604051908101604052809392919081815260200183836020028082843782019150505050505091905050610797565b6040518082815260200191505060405180910390f35b341561022f57600080fd5b6102bc600480803590602001908201803590602001908080602002602001604051908101604052809392919081815260200183836020028082843782019150505050505091908035906020019082018035906020019080806020026020016040519081016040528093929190818152602001838360200280828437820191505050505050919050506107d7565b6040518083815260200182600019166000191681526020019250505060405180910390f35b34156102ec57600080fd5b610318600480803590602001909190803515159060200190919080351515906020019091905050610838565b005b6000809054906101000a900473ffffffffffffffffffffffffffffffffffffffff1673ffffffffffffffffffffffffffffffffffffffff16632b50883560008b89876040518563ffffffff167c0100000000000000000000000000000000000000000000000000000000028152600401808581526020018481526020018315151515815260200182151515158152602001945050505050600060405180830381600087803b15156103ca57600080fd5b6102c65a03f115156103db57600080fd5b5050506000809054906101000a900473ffffffffffffffffffffffffffffffffffffffff1673ffffffffffffffffffffffffffffffffffffffff16632b50883560018a88866040518563ffffffff167c0100000000000000000000000000000000000000000000000000000000028152600401808581526020018481526020018315151515815260200182151515158152602001945050505050600060405180830381600087803b151561048e57600080fd5b6102c65a03f1151561049f57600080fd5b5050506000809054906101000a900473ffffffffffffffffffffffffffffffffffffffff1673ffffffffffffffffffffffffffffffffffffffff16632b50883560028987856040518563ffffffff167c0100000000000000000000000000000000000000000000000000000000028152600401808581526020018481526020018315151515815260200182151515158152602001945050505050600060405180830381600087803b151561055257600080fd5b6102c65a03f1151561056357600080fd5b505050505050505050505050565b6000809054906101000a900473ffffffffffffffffffffffffffffffffffffffff1673ffffffffffffffffffffffffffffffffffffffff16632b50883560008887866040518563ffffffff167c0100000000000000000000000000000000000000000000000000000000028152600401808581526020018481526020018315151515815260200182151515158152602001945050505050600060405180830381600087803b151561062157600080fd5b6102c65a03f1151561063257600080fd5b5050506000809054906101000a900473ffffffffffffffffffffffffffffffffffffffff1673ffffffffffffffffffffffffffffffffffffffff166328a0072c60008786856040518563ffffffff167c0100000000000000000000000000000000000000000000000000000000028152600401808581526020018481526020018315151515815260200182151515158152602001945050505050600060405180830381600087803b15156106e557600080fd5b6102c65a03f115156106f657600080fd5b505050505050505050565b610709610901565b610711610901565b60036040518059106107205750595b90808252806020026020018201604052509050600181600081518110151561074457fe5b9060200190602002018181525050600281600181518110151561076357fe5b9060200190602002018181525050600381600281518110151561078257fe5b90602001906020020181815250508091505090565b600080600090505b82518110156107d15782818151811015156107b657fe5b9060200190602002015182019150808060010191505061079f565b50919050565b60008060008090505b84518110156108125784818151811015156107f757fe5b906020019060200201518301925080806001019150506107e0565b83600185510381518110151561082457fe5b906020019060200201519150509250929050565b6000809054906101000a900473ffffffffffffffffffffffffffffffffffffffff1673ffffffffffffffffffffffffffffffffffffffff16632b50883560008585856040518563ffffffff167c0100000000000000000000000000000000000000000000000000000000028152600401808581526020018481526020018315151515815260200182151515158152602001945050505050600060405180830381600087803b15156108e857600080fd5b6102c65a03f115156108f957600080fd5b505050505050565b6020604051908101604052806000815250905600a165627a7a72305820ec82deefde21938c578ebedb4c08804475c4bec70361216ff2642576f7fd5baa0029",
  "source": "pragma solidity ^0.4.16;\n\nimport \"./TestController.sol\";\n\ncontract TestInteractive {\n\n  address testController;\n\n  function TestInteractive(address _testController) {\n    testController = _testController;\n  }\n\n  function change_first_number (uint256 _number, bool _to_throw, bool _to_return_false) {\n    TestController(testController).change_storage(0, _number, _to_throw, _to_return_false);\n  }\n\n  function change_three_numbers (uint256 _number_1, uint256 _number_2, uint256 _number_3, bool _to_throw_1, bool _to_throw_2, bool _to_throw_3, bool _to_return_false_1, bool _to_return_false_2, bool _to_return_false_3) {\n    TestController(testController).change_storage(0, _number_1, _to_throw_1, _to_return_false_1);\n    TestController(testController).change_storage(1, _number_2, _to_throw_2, _to_return_false_2);\n    TestController(testController).change_storage(2, _number_3, _to_throw_3, _to_return_false_3);\n  }\n\n  function change_two_contracts (uint256 _number_1_contract_1, uint256 _number_1_contract_2, bool _to_throw_1, bool _to_throw_2, bool _to_return_false_1, bool _to_return_false_2) {\n    TestController(testController).change_storage(0, _number_1_contract_1, _to_throw_1, _to_return_false_1);\n    TestController(testController).change_storage_two(0, _number_1_contract_2, _to_throw_2, _to_return_false_2);\n  }\n\n  function test_multiples(uint256[] _numbers)\n           returns (uint256 _sum)\n  {\n    for (uint256 i = 0; i < _numbers.length; i++) {\n      _sum += _numbers[i];\n    }\n  }\n\n  function test_multiple_arrays(uint256[] _numbers, bytes32[] _strings)\n           returns (uint256 _sum, bytes32 _last_string)\n  {\n    for (uint256 i = 0; i < _numbers.length; i++) {\n      _sum += _numbers[i];\n    }\n    _last_string = _strings[_strings.length - 1];\n  }\n\n  function return_numbers()\n           returns (uint256[] _array)\n  {\n    uint256[] memory _array_temp = new uint256[](3);\n    _array_temp[0] = 1;\n    _array_temp[1] = 2;\n    _array_temp[2] = 3;\n    _array = _array_temp;\n  }\n}\n",
  "sourcePath": "/home/vu/digix/solidity-demonstrations/contracts/TestInteractive.sol",
  "compiler": {
    "name": "solc",
    "version": "0.4.19+commit.c4cbbb05.Emscripten.clang"
  },
  "schemaVersion": "2.0.0",
  "updatedAt": "2018-03-05T09:35:45.733Z"
}