{
  "contractName": "TestController",
  "abi": [
    {
      "inputs": [
        {
          "name": "_testStorage",
          "type": "address"
        },
        {
          "name": "_testStorageTwo",
          "type": "address"
        }
      ],
      "payable": false,
      "stateMutability": "nonpayable",
      "type": "constructor"
    },
    {
      "constant": false,
      "inputs": [
        {
          "name": "_position",
          "type": "uint256"
        },
        {
          "name": "_number",
          "type": "uint256"
        },
        {
          "name": "_to_throw",
          "type": "bool"
        },
        {
          "name": "_to_return_false",
          "type": "bool"
        }
      ],
      "name": "change_storage",
      "outputs": [],
      "payable": false,
      "stateMutability": "nonpayable",
      "type": "function"
    },
    {
      "constant": false,
      "inputs": [
        {
          "name": "_position",
          "type": "uint256"
        },
        {
          "name": "_number",
          "type": "uint256"
        },
        {
          "name": "_to_throw",
          "type": "bool"
        },
        {
          "name": "_to_return_false",
          "type": "bool"
        }
      ],
      "name": "change_storage_two",
      "outputs": [],
      "payable": false,
      "stateMutability": "nonpayable",
      "type": "function"
    }
  ],
  "bytecode": "0x6060604052341561000f57600080fd5b60405160408061037c83398101604052808051906020019091908051906020019091905050816000806101000a81548173ffffffffffffffffffffffffffffffffffffffff021916908373ffffffffffffffffffffffffffffffffffffffff16021790555080600160006101000a81548173ffffffffffffffffffffffffffffffffffffffff021916908373ffffffffffffffffffffffffffffffffffffffff16021790555050506102b6806100c66000396000f30060606040526004361061004c576000357c0100000000000000000000000000000000000000000000000000000000900463ffffffff16806328a0072c146100515780632b50883514610093575b600080fd5b341561005c57600080fd5b6100916004808035906020019091908035906020019091908035151590602001909190803515159060200190919050506100d5565b005b341561009e57600080fd5b6100d36004808035906020019091908035906020019091908035151590602001909190803515159060200190919050506101b0565b005b600160009054906101000a900473ffffffffffffffffffffffffffffffffffffffff1673ffffffffffffffffffffffffffffffffffffffff1663c6542ac7858585856000604051602001526040518563ffffffff167c0100000000000000000000000000000000000000000000000000000000028152600401808581526020018481526020018315151515815260200182151515158152602001945050505050602060405180830381600087803b151561018e57600080fd5b6102c65a03f1151561019f57600080fd5b505050604051805190505050505050565b6000809054906101000a900473ffffffffffffffffffffffffffffffffffffffff1673ffffffffffffffffffffffffffffffffffffffff1663c6542ac7858585856000604051602001526040518563ffffffff167c0100000000000000000000000000000000000000000000000000000000028152600401808581526020018481526020018315151515815260200182151515158152602001945050505050602060405180830381600087803b151561026857600080fd5b6102c65a03f1151561027957600080fd5b5050506040518051905050505050505600a165627a7a723058203bf1d19c880b59a2a5fb2481090b5d89aa43d847b2377d542e720d576d8ad0780029",
  "source": "pragma solidity ^0.4.16;\n\nimport \"./TestStorage.sol\";\nimport \"./TestStorageTwo.sol\";\n\ncontract TestController {\n\n  address testStorage;\n  address testStorageTwo;\n\n  function TestController(address _testStorage, address _testStorageTwo) {\n    testStorage = _testStorage;\n    testStorageTwo = _testStorageTwo;\n  }\n\n  function change_storage (uint256 _position, uint256 _number, bool _to_throw, bool _to_return_false) {\n    TestStorage(testStorage).change_number(_position, _number, _to_throw, _to_return_false);\n  }\n\n  function change_storage_two (uint256 _position, uint256 _number, bool _to_throw, bool _to_return_false) {\n    TestStorageTwo(testStorageTwo).change_number(_position, _number, _to_throw, _to_return_false);\n  }\n}\n",
  "sourcePath": "/home/vu/digix/solidity-demonstrations/contracts/TestController.sol",
  "compiler": {
    "name": "solc",
    "version": "0.4.19+commit.c4cbbb05.Emscripten.clang"
  },
  "schemaVersion": "2.0.0",
  "updatedAt": "2018-03-05T09:35:45.712Z"
}