{
  "contractName": "TestStorageTwo",
  "abi": [
    {
      "inputs": [],
      "payable": false,
      "stateMutability": "nonpayable",
      "type": "constructor"
    },
    {
      "constant": false,
      "inputs": [
        {
          "name": "_position",
          "type": "uint256"
        },
        {
          "name": "_number",
          "type": "uint256"
        },
        {
          "name": "_to_throw",
          "type": "bool"
        },
        {
          "name": "_to_return_false",
          "type": "bool"
        }
      ],
      "name": "change_number",
      "outputs": [
        {
          "name": "_success",
          "type": "bool"
        }
      ],
      "payable": false,
      "stateMutability": "nonpayable",
      "type": "function"
    },
    {
      "constant": false,
      "inputs": [],
      "name": "read_numbers",
      "outputs": [
        {
          "name": "_numbers",
          "type": "uint256[]"
        }
      ],
      "payable": false,
      "stateMutability": "nonpayable",
      "type": "function"
    }
  ],
  "bytecode": "0x6060604052341561000f57600080fd5b60008054806001018281610023919061008f565b9160005260206000209001600080909190915055506000805480600101828161004c919061008f565b91600052602060002090016000809091909150555060008054806001018281610075919061008f565b9160005260206000209001600080909190915055506100e0565b8154818355818115116100b6578183600052602060002091820191016100b591906100bb565b5b505050565b6100dd91905b808211156100d95760008160009055506001016100c1565b5090565b90565b6101ed806100ef6000396000f30060606040526004361061004c576000357c0100000000000000000000000000000000000000000000000000000000900463ffffffff16806376dcc52114610051578063c6542ac7146100bb575b600080fd5b341561005c57600080fd5b610064610115565b6040518080602001828103825283818151815260200191508051906020019060200280838360005b838110156100a757808201518184015260208101905061008c565b505050509050019250505060405180910390f35b34156100c657600080fd5b6100fb600480803590602001909190803590602001909190803515159060200190919080351515906020019091905050610173565b604051808215151515815260200191505060405180910390f35b61011d6101ad565b600080548060200260200160405190810160405280929190818152602001828054801561016957602002820191906000526020600020905b815481526020019060010190808311610155575b5050505050905090565b60008360008681548110151561018557fe5b906000526020600020900181905550821515156101a157600080fd5b81159050949350505050565b6020604051908101604052806000815250905600a165627a7a723058203cd586a8eb0b20acbaa7fc398948adef171e1dbe6de2bb9955988c658853d8760029",
  "source": "pragma solidity ^0.4.16;\n\ncontract TestStorageTwo {\n  uint256[] numbers;\n\n  function TestStorageTwo() {\n    numbers.push(0);\n    numbers.push(0);\n    numbers.push(0);\n  }\n\n  function change_number(uint256 _position, uint256 _number, bool _to_throw, bool _to_return_false)\n           public\n           returns (bool _success)\n  {\n    numbers[_position] = _number;\n    require(!_to_throw);\n    _success = !_to_return_false;\n  }\n\n  function read_numbers()\n           returns (uint256[] _numbers)\n  {\n    _numbers = numbers;\n  }\n}\n",
  "sourcePath": "/home/vu/digix/solidity-demonstrations/contracts/TestStorageTwo.sol",
  "compiler": {
    "name": "solc",
    "version": "0.4.19+commit.c4cbbb05.Emscripten.clang"
  },
  "schemaVersion": "2.0.0",
  "updatedAt": "2018-03-05T09:35:45.716Z"
}